:100000000C9446000C9463000C9463000C94630001
:100010000C9463000C9463000C9463000C946103D3
:100020000C943D030C9463000C9463000C946300E7
:100030000C9463000C9463000C9463000C946300B4
:100040000C9463000C9463000C9463000C946300A4
:100050000C9463000C9463000C9463000C94630094
:100060000C9463000C9463000C9463000C94630084
:100070000C9463000C9463000C9463000C94630074
:100080000C9463000C9463000C94630011241FBE55
:10009000CFEFD0E1DEBFCDBF11E0A0E0B1E0ECEDED
:1000A000F6E102C005900D92A03BB107D9F721E01F
:1000B000A0EBB1E001C01D92AD3BB207E1F70E9499
:1000C000E9040C946C0B0C94000081B3886481BB30
:1000D00012BA87B3876087BB8DB18F658DB9C09A1F
:1000E00082B3886482BB08958130910539F018F09D
:1000F000029749F0089582B390E402C082B398E079
:10010000892782BB089588B391E0892788BB089529
:10011000672B69F08130910531F018F0029729F0D2
:100120000895969A0895939A0895C09A08958130F3
:10013000910531F018F0029729F0089596980895E6
:1001400093980895C09808951F93CF93DF93EC017F
:10015000162F60E070E00E9488001FB9779BFECFE9
:1001600061E070E0CE010E9488008FB1DF91CF91F5
:100170001F910895CF92DF92EF92FF920F931F93FA
:10018000CF93DF938C016B017A01CA010E9455075E
:10019000EC0160E070E0C8010E948800DE01F60119
:1001A000EC0EFD1EAE15BF0539F081918FB9779B1E
:1001B000FECF8FB18D93F6CF61E070E0C8010E9451
:1001C0008800CE01DF91CF911F910F91FF90EF90AA
:1001D000DF90CF9008951F93CF93DF93EC01162FFC
:1001E00060E070E00E9488001FB9779BFECF1FB8C7
:1001F000779BFECF61E070E0CE010E9488008FB156
:10020000DF91CF911F910895CF9388E291E00E94F2
:10021000900868E382E090E00E94A40060E082E041
:1002200090E00E94A400C82F60E082E090E00E946D
:10023000A400CE3249F4883839F41F928F931F926C
:10024000CF938CE391E006C01F928F931F92CF93C0
:1002500087E591E09F938F930E947C080F900F9009
:100260000F900F900F900F9066E182E090E00E9457
:10027000A40060E082E090E00E94A40067E082E0D9
:1002800090E00E94A40060E082E090E00E94A40060
:100290006FE182E090E00E94A40063E182E090E0E0
:1002A0000E94A4006FE082E090E00E94A40068E158
:1002B00082E090E00E94A4006EE282E090E00E9462
:1002C000A40068E082E090E00E94A40069E082E07F
:1002D00090E00E94A4006AE082E090E00E94A40006
:1002E0006AE082E090E00E94A4006AE082E090E090
:1002F0000E94A40068E382E090E00E94A40060E015
:1003000082E090E00E94A400C82F60E082E090E0CC
:100310000E94A4001F928F931F92CF938FE491E0CD
:100320009F938F930E947C0868ED82E090E00E948A
:10033000A40060E082E090E00E94A4000F900F9083
:100340000F900F900F900F9080E090E0CF91089564
:1003500026E030E040E050E00E94F306CA01B90117
:100360000895CF9361E282E090E00E94A40060E0F3
:1003700082E090E00E94A40060E082E090E00E94B1
:10038000A400C82F60E082E090E00E94A4004C2FFF
:1003900050E0542F4427662757FD6095762F482B51
:1003A000CB01BA01CF91089568EB82E090E00E9402
:1003B000A40060E082E090E00C94A4008F929F92F1
:1003C000AF92BF92CF92DF92EF92FF92CF93DF93E3
:1003D00000D000D0CDB7DEB7BC01882777FD80956F
:1003E000982F26E030E040E050E00E94F306298399
:1003F0003A834B835C830E94B10129813A814B810E
:100400005C814A01BB2497FCB094AB2CC32ED42E44
:10041000E52EFF24E7FCFA9462177307840795071B
:1004200024F469E682E090E007C068E682E090E0AC
:1004300029833A834B835C830E94A400682D6F73E9
:1004400082E090E00E94A4006C2D82E090E00E9487
:10045000A4002981622F82E090E00F900F900F900E
:100460000F90DF91CF91FF90EF90DF90CF90BF90F2
:10047000AF909F908F900C94A4009C0197FF04C0B4
:1004800022273327281B390B20384EE334072CF45E
:1004900037FF05C020E030E002C020E83EE33093A3
:1004A00087002093860097FF02C0929A03C0892B91
:1004B00019F09298919A03C082B3897F82BBCB01D5
:1004C00077FF04C088279927861B970B80382EE377
:1004D00092072CF497FF05C080E090E002C080E80E
:1004E0009EE3909385008093840077FF02C0959AE5
:1004F00003C0672B19F09598949A089582B38F7C66
:1005000082BB089560E070E080E891EC0E943D02BB
:100510002FEF8FE097E2215080409040E1F700C03C
:1005200000001092B1011092B0012FEF89E698E11E
:10053000215080409040E1F700C000000895CF9323
:10054000DF9300D000D0CDB7DEB78DB187658DB910
:100550002FEF84E39CE0215080409040E1F700C001
:10056000000080E389831A821B821C8244E050E0F1
:10057000BE016F5F7F4F80E090E00E94BA002FEFD6
:1005800089E698E1215080409040E1F700C00000EA
:100590008DB18F658DB9949A919A109287001092BF
:1005A000860010928500109284002FEF89E698E172
:1005B000215080409040E1F700C000000E9482027C
:1005C0000F900F900F900F90DF91CF91089524E03E
:1005D00031E03093BA012093B9019093900089B92A
:1005E00088E18AB98EE08093950008955D9BFECFE7
:1005F0008CB90895CF93C82F8A3019F48DE00E94EA
:10060000F6028C2F0E94F60280E090E0CF910895D0
:100610005F9BFECF8CB108958BB1881F8827881F00
:100620000895CF93DF93EC018991882319F00E94FC
:10063000F602FACFDF91CF9108958091B201880F31
:10064000880F8093B201E1B1E295E695E695E370FB
:10065000E82BE093B201EF70F0E0E85EFE4F2081FE
:100660008091B0019091B101820F911D27FD9A9563
:100670009093B1018093B00108951F920F920FB62D
:100680000F9211242F933F934F935F936F937F9318
:100690008F939F93AF93BF93EF93FF930E941D039C
:1006A000FF91EF91BF91AF919F918F917F916F914A
:1006B0005F914F913F912F910F900FBE0F901F9020
:1006C00018951F920F920FB60F9211242F933F93FC
:1006D0004F935F936F937F938F939F93AF93BF934A
:1006E000EF93FF930E941D03FF91EF91BF91AF9194
:1006F0009F918F917F916F915F914F913F912F913A
:100700000F900FBE0F901F90189593981FB8779B6E
:10071000FECF8FB190E0982F88271FB8779BFECF30
:100720003FB1939A2FB1232B822B880F991FB6E0EC
:1007300096958795BA95E1F708959B0190930301EB
:1007400080930201709301016093000162E1689F50
:10075000A001699F500D1124CA0169E070E00E9458
:10076000CB0660557B4F7BBD6ABDC901880F991FC1
:10077000880F991F63E070E00E94CB06685F784F96
:1007800079BD68BD089587B3806687BB8FB5826ADF
:100790008FBD8FB58F7B8FBD8EB58A618EBD80E496
:1007A0009CE997BD86BD64E873E084E893E00E940D
:1007B0009D0382B1886182B9EBE8F0E08081826AB2
:1007C0008083EAE8F0E08081896180838EE3809312
:1007D000810080E88093800060E070E080E090E03D
:1007E0000E943D020E94650081B3866381BBA69A88
:1007F00015BA8AB780658ABF89B7806C89BF78943B
:1008000008956F927F928F929F92AF92BF92CF92F4
:10081000DF92EF92FF920F931F93CF93DF9300D05D
:1008200000D000D0CDB7DEB7CB014801CE18DF082D
:10083000B601D7FE04C0662777276C197D09EEE163
:10084000E69F7001E79FF00C1124FA01E81BF90BF9
:100850008F01F7FF04C0002711270E1B1F0B84E137
:10086000809F3001819F700C112481E8E8168EE38F
:10087000F80620F0A0E8EA2EAEE3FA2EC6010E94A8
:10088000DF06E69EC001E79E900DF69E900D1124B6
:1008900065E06A9DA0016B9D500D1124840F951F8A
:1008A0009A83898381E868168EE3780620F070E8E1
:1008B000672E7EE3772ECF01B8010E94DF06669E89
:1008C000A001679E500D769E500D112464E0220F0A
:1008D000331F6A95E1F7420F531F25E0289DC001A1
:1008E000299D900D1124480F591F5C834B8329814A
:1008F0003A815C816D817E8180E090E026960FB622
:10090000F894DEBF0FBECDBFDF91CF911F910F9145
:10091000FF90EF90DF90CF90BF90AF909F908F901F
:100920007F906F9008959B01AC01205231094109DD
:100930005109A4EDB7E00E94190722EA33E040E034
:1009400050E00E94F3062656310941095109CA01B7
:10095000B90108959B01AC01A8E2BAE00E94190711
:100960002BE831E140E050E00E94F306205931408D
:1009700041095109CA01B9010895EF92FF920F93FD
:100980001F93CF93DF93C0E0D0E0E82EFF24E7FC75
:10099000F0940AE611E0C7010C2E01C0880F0A94FA
:1009A000EAF787FB882780F91F928F931F930F9395
:1009B0000E947C0821960F900F900F900F90C830E6
:1009C000D10549F7DF91CF911F910F91FF90EF90E3
:1009D0000895CF93DF93CDB7DEB7EB970FB6F894BA
:1009E000DEBF0FBECDBF0E94C3030E949F0283E300
:1009F00090E00E94E70284E1FE017596DF01282F56
:100A00001D922A95E9F77497DF011D928A95E9F7FF
:100A1000BFEF29E638E1B15020403040E1F700C097
:100A200000000E9404014FEF59E688E14150504018
:100A30008040E1F700C0000068E077E084E893E0E0
:100A40000E949D039FEFA1EEB4E09150A040B04002
:100A5000E1F700C000000E94D401612C712C412CF0
:100A6000512C212C312C20E73EEF3BAB2AAB44E844
:100A700053E05DAB4CAB0E940C03882381F053E044
:100A80006516710460F40E940803EFE2F0E0EC0FD9
:100A9000FD1FE60DF71D80838FEF681A780A0E940C
:100AA0008503BC01882777FD8095982F0E949304C9
:100AB0006EAB7FAB88AF99AFA091B001B091B1019F
:100AC00028E23AE00E9412072BE831E140E050E0D2
:100AD0000E94F30679018A0190E9E91A91E0F90A86
:100AE00001091109E8E0F7E0ACA9BDA9EA1BFB0B7D
:100AF0009F014EA95FA9241B350BD101AA0FBB1F73
:100B000081E090E08C0F9D1FA80FB91F55963C9374
:100B10002E935497C10109966AE070E00E94DF06A7
:100B2000880F991FA1E0B0E0AC0FBD1F8A0F9B1F7B
:100B3000DC0154968D919C915597A901481B590B46
:100B40005BAF4AAF47018AA99BA9881A990AD201CB
:100B5000AA0FBB1F21E030E02C0F3D1FA20FB31FD7
:100B60008D929C92C20109966AE070E00E94DF06B5
:100B7000880F991F820F931FDC018D919C91881A19
:100B8000990ABFEF2B1A3B0A2AE02216310414F00F
:100B9000212C312C3FEF431A530A4AE044165104EA
:100BA00014F0412C512C89819A812B813C81820F38
:100BB000931F2D813E81820F931F2F813885820FD5
:100BC000931F29853A85820F931F2B853C85820FC1
:100BD000931F2D853E85820F931F2F853889820FA5
:100BE000931F29893A89820F931F2B893C89820F91
:100BF000931F6AE070E00E94DF065B018D899E8989
:100C00002F89388D820F931F298D3A8D820F931F64
:100C10002B8D3C8D820F931F2D8D3E8D820F931F48
:100C20002F8D38A1820F931F29A13AA1820F931F04
:100C30002BA13CA1820F931F2DA13EA1820F931FD8
:100C40002FA138A5820F931F6AE070E00E94DF0693
:100C50009B01CAA8DBA80AAD1BADAF016EA97FA995
:100C600080E090E00E94010429A73AA74BA75CA767
:100C70006DA77EA76BA57CA589A59AA50E943D02BC
:100C800053E06516710409F060C008A910E0102F48
:100C9000002789A9082B8FA5833899F1A0F4813802
:100CA00021F1823809F04FC01F930F93A8E7B1E0FC
:100CB000BF93AF930E947C080F900F900F900F90FE
:100CC0001DAB0CAB40C0843859F18538E1F51F935A
:100CD0000F93A1EAB1E0BF93AF930E947C08B801E3
:100CE000809102019091030128C01F930F93ADE6FC
:100CF000B1E0BF93AF930E947C08C8010E94DE015F
:100D00001EC01F930F93A7E8B1E0BF93AF930E945B
:100D10007C080F900F900F900F901BAB0AAB13C085
:100D20001F930F93A3E9B1E0BF93AF930E947C0898
:100D30006091000170910101C8010E949D030F9014
:100D40000F900F900F90612C712C4CA95DA94E361D
:100D500087E0580744F44A395F4F4CF4AAE9BFEFE3
:100D6000BDABACAB04C02EE637E03DAB2CAB4AA923
:100D70005BA9483988E058074CF440375E4F0CF0C7
:100D80007ACEA0E7BEEFBBABAAAB75CE28E938E0C0
:100D90003BAB2AAB70CEAA1BBB1B51E107C0AA1FFD
:100DA000BB1FA617B70710F0A61BB70B881F991F0C
:100DB0005A95A9F780959095BC01CD01089597FBB0
:100DC000072E16F4009407D077FD09D00E94CB06B9
:100DD00007FC05D03EF4909581959F4F089570953E
:100DE00061957F4F0895052E97FB1EF400940E9495
:100DF0000A0757FD07D00E94240707FC03D04EF4D2
:100E00000C940A0750954095309521953F4F4F4FD0
:100E10005F4F089590958095709561957F4F8F4FA6
:100E20009F4F08950E944607B7FF0895821B930BBA
:100E300008950E944607A59F900DB49F900DA49F12
:100E4000800D911D11240895A1E21A2EAA1BBB1B2F
:100E5000FD010DC0AA1FBB1FEE1FFF1FA217B30786
:100E6000E407F50720F0A21BB30BE40BF50B661F9C
:100E7000771F881F991F1A9469F760957095809560
:100E800090959B01AC01BD01CF010895A29FB001D7
:100E9000B39FC001A39F700D811D1124911DB29FAE
:100EA000700D811D1124911D0895CF93DF93823021
:100EB000910510F482E090E0E091B501F091B60167
:100EC00020E030E0A0E0B0E0309739F1408151817E
:100ED00048175907B8F04817590771F48281938170
:100EE000109729F013969C938E9312972CC0909391
:100EF000B6018093B50127C02115310531F04217A5
:100F0000530718F0A901DB0101C0EF019A01BD01EF
:100F1000DF010280F381E02DD7CF21153105F9F0F3
:100F2000281B390B2430310580F48A819B8161159F
:100F3000710521F0FB019383828304C09093B60175
:100F40008093B501FE01329644C0FE01E20FF31F0B
:100F50008193919322503109398328833AC020919B
:100F6000B3013091B401232B41F42091140130914D
:100F700015013093B4012093B301209112013091F7
:100F800013012115310541F42DB73EB740911601EB
:100F900050911701241B350BE091B301F091B4017E
:100FA000E217F307A0F42E1B3F0B2817390778F040
:100FB000AC014E5F5F4F2417350748F04E0F5F1F9F
:100FC0005093B4014093B3018193919302C0E0E048
:100FD000F0E0CF01DF91CF910895CF93DF93009799
:100FE00009F487C0FC01329713821282C091B501C7
:100FF000D091B601209781F420813181280F391FCB
:101000008091B3019091B4018217930779F5F09321
:10101000B401E093B3016DC0DE0120E030E0AE1713
:10102000BF0750F412964D915C9113979D014115A5
:10103000510509F1DA01F3CFB383A28340815181D5
:10104000840F951F8A179B0771F48D919C911197BE
:10105000840F951F02969183808312968D919C91A7
:101060001397938382832115310529F4F093B601F8
:10107000E093B5013EC0D9011396FC93EE9312970D
:101080004D915D91A40FB51FEA17FB0779F480819C
:101090009181840F951F0296D90111969C938E938E
:1010A0008281938113969C938E931297E0E0F0E0F7
:1010B0008A819B81009719F0FE01EC01F9CFCE01E6
:1010C000029628813981820F931F2091B3013091BC
:1010D000B4012817390769F4309729F41092B60142
:1010E0001092B50102C013821282D093B401C09352
:1010F000B301DF91CF910895A0E0B0E0E2E8F8E01D
:101100000C94450BFE01359661917191AF01809170
:10111000B9019091BA010E94BD08E2E00C94610B04
:101120000F931F93CF93DF93E091B901F091BA0130
:10113000238121FF1BC0EC0100E010E08991609148
:10114000B9017091BA01DB011896ED91FC911997E4
:10115000882331F00995892B89F30FEF1FEFEECF2C
:101160008AE00995892B11F4C80102C08FEF9FEF27
:10117000DF91CF911F910F910895ACE0B0E0E3ECC7
:10118000F8E00C94350B7C016B018A01FC0117829D
:101190001682838181FFBDC1CE0101964C01F7010A
:1011A0009381F60193FD859193FF81916F018823CF
:1011B00009F4ABC1853239F493FD859193FF819198
:1011C0006F01853229F4B70190E00E94A50AE7CFAC
:1011D000512C312C20E02032A0F48B3269F030F415
:1011E000803259F0833269F420612CC08D3239F09D
:1011F000803339F4216026C02260246023C0286037
:1012000021C027FD27C030ED380F3A3078F426FF93
:1012100006C0FAE05F9E300D1124532E13C08AE001
:10122000389E300D1124332E20620CC08E3221F4F2
:1012300026FD6BC1206406C08C3611F4206802C004
:10124000883641F4F60193FD859193FF81916F01FA
:101250008111C1CF982F9F7D9554933028F40C5F56
:101260001F4FFFE3F9830DC0833631F0833771F0F0
:10127000833509F05BC022C0F801808189830E5F4D
:101280001F4F44244394512C540115C03801F2E0FF
:101290006F0E711CF801A080B18026FF03C0652D80
:1012A00070E002C06FEF7FEFC5012C870E949A0AA1
:1012B0002C0183012C852F77222E17C03801F2E0F4
:1012C0006F0E711CF801A080B18026FF03C0652D50
:1012D00070E002C06FEF7FEFC5012C870E948F0A7C
:1012E0002C012C852068222E830123FC1BC0832D1A
:1012F00090E048165906B0F4B70180E290E00E94F1
:10130000A50A3A94F4CFF50127FC859127FE819137
:101310005F01B70190E00E94A50A31103A94F1E014
:101320004F1A51084114510471F7E5C0843611F089
:10133000893639F5F80127FF07C060817181828104
:1013400093810C5F1F4F08C060817181882777FDF2
:101350008095982F0E5F1F4F2F76B22E97FF09C0F2
:1013600090958095709561957F4F8F4F9F4F206826
:10137000B22E2AE030E0A4010E94D70AA82EA818B5
:1013800044C0853729F42F7EB22E2AE030E025C0F4
:10139000F22FF97FBF2E8F36C1F018F4883579F01F
:1013A000B4C0803719F0883721F0AFC02F2F2061EB
:1013B000B22EB4FE0DC08B2D8460B82E09C024FF60
:1013C0000AC09F2F9660B92E06C028E030E005C005
:1013D00020E130E002C020E132E0F801B7FE07C0B2
:1013E00060817181828193810C5F1F4F06C0608193
:1013F000718180E090E00E5F1F4FA4010E94D70A28
:10140000A82EA818FB2DFF77BF2EB6FE0BC02B2DE4
:101410002E7FA51450F4B4FE0AC0B2FC08C02B2DD8
:101420002E7E05C07A2C2B2D03C07A2C01C0752C82
:1014300024FF0DC0FE01EA0DF11D8081803311F4FF
:10144000297E09C022FF06C07394739404C0822FC2
:10145000867809F0739423FD13C020FF06C05A2C30
:10146000731418F4530C5718732C731468F4B701E1
:1014700080E290E02C870E94A50A73942C85F5CF1A
:10148000731410F4371801C0312C24FF12C0B701B7
:1014900080E390E02C870E94A50A2C8522FF17C0CC
:1014A00021FF03C088E590E002C088E790E0B70123
:1014B0000CC0822F867859F021FD02C080E201C065
:1014C0008BE227FD8DE2B70190E00E94A50AA514EA
:1014D00038F4B70180E390E00E94A50A5A94F7CF50
:1014E000AA94F401EA0DF11D8081B70190E00E94F9
:1014F000A50AA110F5CF332009F451CEB70180E23F
:1015000090E00E94A50A3A94F6CFF7018681978170
:1015100002C08FEF9FEF2C96E2E10C94510BFC017F
:101520000590615070400110D8F7809590958E0F0E
:101530009F1F0895FC016150704001900110D8F781
:10154000809590958E0F9F1F08950F931F93CF93B3
:10155000DF93182F092FEB018B8181FD03C08FEFE3
:101560009FEF20C082FF10C04E815F812C813D81A2
:10157000421753077CF4E881F9819F012F5F3F4FA9
:1015800039832883108306C0E885F985812F099562
:10159000892B29F72E813F812F5F3F4F3F832E8379
:1015A000812F902FDF91CF911F910F910895FA0114
:1015B000AA27283051F1203181F1E8946F936E7F92
:1015C0006E5F7F4F8F4F9F4FAF4FB1E03ED0B4E083
:1015D0003CD0670F781F891F9A1FA11D680F791FC4
:1015E0008A1F911DA11D6A0F711D811D911DA11DD5
:1015F00020D009F468943F912AE0269F11243019E5
:10160000305D3193DEF6CF010895462F4770405D7F
:101610004193B3E00FD0C9F7F6CF462F4F70405D2E
:101620004A3318F0495D31FD4052419302D0A9F789
:10163000EACFB4E0A6959795879577956795BA9583
:10164000C9F700976105710508959B01AC010A2E49
:1016500006945795479537952795BA95C9F7620F20
:10166000731F841F951FA01D08952F923F924F92C4
:101670005F926F927F928F929F92AF92BF92CF9222
:10168000DF92EF92FF920F931F93CF93DF93CDB72B
:10169000DEB7CA1BDB0B0FB6F894DEBF0FBECDBFA3
:1016A00009942A88398848885F846E847D848C8474
:1016B0009B84AA84B984C884DF80EE80FD800C817D
:1016C0001B81AA81B981CE0FD11D0FB6F894DEBF60
:0C16D0000FBECDBFED010895F894FFCFD0
:1016DC00840384030000000200000000FA020000F2
:1016EC0000000000BD01200000FF0100010000FF10
:1016FC00FF0000010001FF00645350494E20496E69
:10170C00697469616C697A696E6721006453504928
:10171C004E20496E697469616C697A656421202573
:10172C00782025780D0A004661696C6564212121B9
:10173C00202578202578200D0A002564004261734D
:10174C00653A2025690D0A0053686F756C646572E3
:10175C00212025690D0A00456C626F7721202569CF
:10176C000D0A0057726973742041212025690D0AF6
:10177C000057726973742042212025690D0A0000FC
:00000001FF
