:100000000C9446000C9463000C9463000C94630001
:100010000C9463000C9463000C9463000C946A03CA
:100020000C9446030C9463000C9463000C946300DE
:100030000C9463000C9463000C9463000C946300B4
:100040000C9463000C9463000C9463000C946300A4
:100050000C9463000C9463000C9463000C94630094
:100060000C9463000C9463000C9463000C94630084
:100070000C9463000C9463000C9463000C94630074
:100080000C9463000C9463000C94630011241FBE55
:10009000CFEFD0E1DEBFCDBF11E0A0E0B1E0EAECF0
:1000A000F6E102C005900D92AA37B107D9F721E019
:1000B000AAE7B1E001C01D92A738B207E1F70E949C
:1000C000F5040C94630B0C94000081B3886481BB2D
:1000D00012BA87B3876087BB8DB187658DB9C09A27
:1000E00082B3886482BB08958130910539F018F09D
:1000F000029749F0089582B390E402C082B398E079
:10010000892782BB089588B391E0892788BB089529
:10011000672B69F08130910531F018F0029729F0D2
:100120000895969A0895939A0895C09A08958130F3
:10013000910531F018F0029729F0089596980895E6
:1001400093980895C09808951F93CF93DF93EC017F
:10015000162F60E070E00E9488001FB9779BFECFE9
:1001600061E070E0CE010E9488008FB1DF91CF91F5
:100170001F910895CF92DF92EF92FF920F931F93FA
:10018000CF93DF938C016B017A01CA010E944C0767
:10019000EC0160E070E0C8010E948800DE01F60119
:1001A000EC0EFD1EAE15BF0539F081918FB9779B1E
:1001B000FECF8FB18D93F6CF61E070E0C8010E9451
:1001C0008800CE01DF91CF911F910F91FF90EF90AA
:1001D000DF90CF9008951F93CF93DF93EC01162FFC
:1001E00060E070E00E9488001FB9779BFECF1FB8C7
:1001F000779BFECF61E070E0CE010E9488008FB156
:10020000DF91CF911F910895CF9388E291E00E94F2
:10021000870868E382E090E00E94A40060E082E04A
:1002200090E00E94A400C82F60E082E090E00E946D
:10023000A400CE3249F4883839F41F928F931F926C
:10024000CF938CE391E006C01F928F931F92CF93C0
:1002500087E591E09F938F930E9473080F900F9012
:100260000F900F900F900F9066E182E090E00E9457
:10027000A40060E082E090E00E94A40067E082E0D9
:1002800090E00E94A40060E082E090E00E94A40060
:100290006FE182E090E00E94A40063E182E090E0E0
:1002A0000E94A4006FE082E090E00E94A40068E158
:1002B00082E090E00E94A4006EE282E090E00E9462
:1002C000A40068E082E090E00E94A40069E082E07F
:1002D00090E00E94A4006AE082E090E00E94A40006
:1002E0006AE082E090E00E94A4006AE082E090E090
:1002F0000E94A40068E382E090E00E94A40060E015
:1003000082E090E00E94A400C82F60E082E090E0CC
:100310000E94A4001F928F931F92CF938FE491E0CD
:100320009F938F930E94730868ED82E090E00E9493
:10033000A40060E082E090E00E94A4000F900F9083
:100340000F900F900F900F9080E090E0CF91089564
:1003500026E030E040E050E00E94EA06CA01B90120
:100360000895CF9361E282E090E00E94A40060E0F3
:1003700082E090E00E94A40060E082E090E00E94B1
:10038000A400C82F60E082E090E00E94A4004C2FFF
:1003900050E0542F4427662757FD6095762F482B51
:1003A000CB01BA01CF91089568EB82E090E00E9402
:1003B000A40060E082E090E00C94A4008F929F92F1
:1003C000AF92BF92CF92DF92EF92FF92CF93DF93E3
:1003D00000D000D0CDB7DEB7BC01882777FD80956F
:1003E000982F26E030E040E050E00E94EA062983A2
:1003F0003A834B835C830E94B10129813A814B810E
:100400005C814A01BB2497FCB094AB2CC32ED42E44
:10041000E52EFF24E7FCFA9462177307840795071B
:1004200024F469E682E090E007C068E682E090E0AC
:1004300029833A834B835C830E94A400682D6F73E9
:1004400082E090E00E94A4006C2D82E090E00E9487
:10045000A4002981622F82E090E00F900F900F900E
:100460000F90DF91CF91FF90EF90DF90CF90BF90F2
:10047000AF909F908F900C94A4009C0197FF04C0B4
:1004800022273327281B390B20384EE334072CF45E
:1004900037FF05C020E030E002C020E83EE33093A3
:1004A00087002093860097FF02C0929A03C0892B91
:1004B00019F09298919A03C082B3897F82BBCB01D5
:1004C00077FF04C088279927861B970B80382EE377
:1004D00092072CF497FF05C080E090E002C080E80E
:1004E0009EE3909385008093840077FF02C09598E7
:1004F00003C0672B19F0959A949A089582B38F7C64
:1005000082BB089560E070E080E89EE30E943D02B7
:100510002FEF8FE097E2215080409040E1F700C03C
:10052000000060E070E080E090E00E943D022FEF6C
:1005300089E698E1215080409040E1F700C000003A
:1005400083E192E190937B0180937A010895CF93A8
:10055000DF9300D000D0CDB7DEB78DB187658DB900
:100560002FEF84E39CE0215080409040E1F700C0F1
:10057000000080E389831A8280E28B831C8244E03E
:1005800050E0BE016F5F7F4F80E090E00E94BA00B4
:100590002FEF89E698E1215080409040E1F700C0BC
:1005A00000008DB18F658DB9949A919A1092870051
:1005B0001092860010928500109284002FEF89E639
:1005C00098E1215080409040E1F700C000000E9477
:1005D00082020F900F900F900F90DF91CF910895AE
:1005E00024E031E0309384012093830190939000C4
:1005F00089B988E18AB98EE08093950008955D9B62
:10060000FECF8CB90895CF93C82F8A3019F48DE0AE
:100610000E94FF028C2F0E94FF0280E090E0CF91A9
:1006200008955F9BFECF8CB108958BB1881F8827FA
:10063000881F0895CF93DF93EC018991882319F0E7
:100640000E94FF02FACFDF91CF91089580917C0143
:10065000880F880F80937C01E1B1E295E695E695DD
:10066000E370E82BE0937C01EF70F0E0E85EFE4F72
:10067000208180917A0190917B01820F911D27FD4D
:100680009A9590937B0180937A0108951F920F921F
:100690000FB60F9211242F933F934F935F936F9355
:1006A0007F938F939F93AF93BF93EF93FF930E949A
:1006B0002603FF91EF91BF91AF919F918F917F9111
:1006C0006F915F914F913F912F910F900FBE0F90BF
:1006D0001F9018951F920F920FB60F9211242F930F
:1006E0003F934F935F936F937F938F939F93AF93BA
:1006F000BF93EF93FF930E942603FF91EF91BF9169
:10070000AF919F918F917F916F915F914F913F91A9
:100710002F910F900FBE0F901F90189593981FB8B0
:10072000779BFECF8FB190E0982F88271FB8779BDB
:10073000FECF3FB1939A2FB1232B822B880F991FA5
:10074000B6E096958795BA95E1F70895CF93FB01AA
:100750009093030180930201709301016093000163
:10076000CFE0C89FA001C99F500D112427E030E0C1
:10077000CA01B9010E94C20668517C4F7BBD6ABDA7
:10078000CE9FC001CF9F900D1124B9010E94C206D7
:1007900068517C4F79BD68BDCF91089587B380665D
:1007A00087BB8FB5826A8FBD8FB58F7B8FBD8EB5AE
:1007B0008A618EBD80E49CE997BD86BD64E873E0E4
:1007C00084E893E00E94A60382B1886182B9EBE8D5
:1007D000F0E08081826A8083EAE8F0E080818961CC
:1007E00080838EE38093810080E88093800060E0C6
:1007F00070E080E090E00E943D020E94650081B3BD
:10080000866381BBA69A15BA8AB780658ABF89B705
:10081000806C89BF789408956F927F928F929F9297
:10082000AF92BF92CF92DF92EF92FF920F931F93FE
:10083000CF93DF9300D000D000D0CDB7DEB7CB018F
:100840004801CE18DF08B601D7FE04C06627772717
:100850006C197D09EEE1E69F7001E79FF00C112411
:10086000FA01E81BF90B8F01F7FF04C000271127DD
:100870000E1B1F0B84E1809F3001819F700C11249F
:1008800081E8E8168EE3F80620F050E8E52E5EE3F6
:10089000F52EC6010E94D606E69EC001E79E900D89
:1008A000F69E900D112465E06A9DA0016B9D500D90
:1008B0001124840F951F9A83898381E868168EE33B
:1008C000780620F040E8642E4EE3742ECF01B80184
:1008D0000E94D606669EA001679E500D769E500D22
:1008E00011246AE0629FC001639F900D1124480F9C
:1008F000591F25E0289DC001299D900D1124480F06
:10090000591F5C834B8329813A815C816D817E8193
:1009100080E090E026960FB6F894DEBF0FBECDBF04
:10092000DF91CF911F910F91FF90EF90DF90CF90CB
:10093000BF90AF909F908F907F906F9008959B0194
:10094000AC012F50310941095109A4EDB7E00E94D3
:10095000100729E833E040E050E00E94EA062656FE
:10096000310941095109CA01B90108959B01AC013E
:10097000A8E2BAE00E94100723E132E140E050E033
:100980000E94EA062059314041095109CA01B901C2
:100990000895EF92FF920F931F93CF93DF93C0E0E0
:1009A000D0E0E82EFF24E7FCF0940AE611E0C7014E
:1009B0000C2E01C0880F0A94EAF787FB882780F97C
:1009C0001F928F931F930F930E94730821960F908D
:1009D0000F900F900F90C830D10549F7DF91CF915C
:1009E0001F910F91FF90EF900895CF93DF93CDB7B4
:1009F000DEB7C154D1090FB6F894DEBF0FBECDBF2C
:100A00000E94CE030E94A70283E390E00E94F002BE
:100A100084E1FE017596DF01282F1D922A95E9F7E2
:100A20007497DF011D928A95E9F7BFEFE9E6F8E1D7
:100A3000B150E040F040E1F700C000000E94040126
:100A40002FEF39E688E1215030408040E1F700C0C7
:100A5000000064E873E084E893E00E94A6039FEF3F
:100A6000A1EEB4E09150A040B040E1F700C000001A
:100A70000E94D4011FA618AA19AA412C512C320198
:100A8000212C312C1DAA1CAA1BAA1AAAE0E7FEEFF2
:100A9000FBAFEAAF24E833E03DAF2CAF0E94150373
:100AA000882399F033E02316310460F40E94110387
:100AB000EFE2F0E0EC0FFD1FE20DF31D80838FEFFE
:100AC000281A380A412C512C32010E948E03BC0195
:100AD000882777FD8095982F0E949F0422966CAFFF
:100AE0007DAF8EAF9FAF2297A0917A01B0917B012D
:100AF00028E23AE00E94090723E132E140E050E0B9
:100B00000E94EA06DA01C90180599140A109B109A0
:100B10008EAB9FABA8AFB9AF0CAD1DADAEADBFAD49
:100B20000A1B1B0BEAA9FBA9EE0FFF1F21E030E017
:100B30002C0F3D1FE20FF31F158B048B8AA99BA975
:100B400009966AE070E00E94D606880F991F820F0E
:100B5000931FDC0154968D919C915597081B190B9E
:100B6000F8E0CF2EF7E0DF2EEAADFBADCE1ADF0ABC
:100B700046012EA93FA9821A930AECA9FDA9EE0FFE
:100B8000FF1F81E090E08C0F9D1FE80FF91F9182FD
:100B900080828CA99DA909966AE070E00E94D60621
:100BA000880F991FA1E0B0E0AC0FBD1F8A0F9B1FFB
:100BB000FC0180819181881A990A2AA93BA92F5F9B
:100BC0003F4F3BAB2AAB2A30310514F01BAA1AAABF
:100BD0008CA99DA901969DAB8CAB0A9714F01DAA18
:100BE0001CAA89819A812B813C81820F931F2D81C0
:100BF0003E81820F931F2F813885820F931F298595
:100C00003A85820F931F2B853C85820F931F2D857C
:100C10003E85820F931F2F853889820F931F298964
:100C20003A89820F931F2B893C89820F931F6AE0B8
:100C300070E00E94D6065B018D899E892F89388DD0
:100C4000820F931F298D3A8D820F931F2B8D3C8D20
:100C5000820F931F2D8D3E8D820F931F2F8D38A1F4
:100C6000820F931F29A13AA1820F931F2BA13CA1B0
:100C7000820F931F2DA13EA1820F931F2FA138A594
:100C8000820F931F6AE070E00E94D6069B01EEA8D7
:100C9000FFA84CAD5DAD6EAD7FAD80E090E00E94F1
:100CA0000C04122F032F29A73AA74BA75CA76DA707
:100CB0007EA76BA57CA5812F902F0E943D0293E01B
:100CC0002916310459F548A950E0942F882729A9FD
:100CD000822B2FA52338A9F038F4213879F0223857
:100CE000C9F49DAF8CAF16C0243871F0253891F44B
:100CF000BC0180910201909103010AC00E94DE01B3
:100D000009C09BAF8AAF06C06091000170910101DC
:100D10000E94A6031FA618AA19AA30C021143104E4
:100D200069F1AFEF4A1A5A0A6A0A7A0AB1E44B1615
:100D3000BCE95B066104710428F01FA618AA19AA71
:100D4000212C312C0F931F93EBADEF93FAADFF9352
:100D50002FA92F933EA93F9380917B018F93809180
:100D60007A018F93ADE6B1E0BF93AF930E94730811
:100D70000FB6F894DEBF0FBECDBF90CE412C512CE4
:100D80003201DECFAA1BBB1B51E107C0AA1FBB1F4C
:100D9000A617B70710F0A61BB70B881F991F5A9507
:100DA000A9F780959095BC01CD01089597FB072E7A
:100DB00016F4009407D077FD09D00E94C20607FC04
:100DC00005D03EF4909581959F4F0895709561955B
:100DD0007F4F0895052E97FB1EF400940E94010793
:100DE00057FD07D00E941B0707FC03D04EF40C945C
:100DF000010750954095309521953F4F4F4F5F4FDC
:100E0000089590958095709561957F4F8F4F9F4F76
:100E100008950E943D07B7FF0895821B930B089524
:100E20000E943D07A59F900DB49F900DA49F800D3B
:100E3000911D11240895A1E21A2EAA1BBB1BFD01CE
:100E40000DC0AA1FBB1FEE1FFF1FA217B307E407A9
:100E5000F50720F0A21BB30BE40BF50B661F771F01
:100E6000881F991F1A9469F76095709580959095E1
:100E70009B01AC01BD01CF010895A29FB001B39FBA
:100E8000C001A39F700D811D1124911DB29F700D93
:100E9000811D1124911D0895CF93DF938230910518
:100EA00010F482E090E0E0917F01F091800120E079
:100EB00030E0A0E0B0E0309739F14081518148172F
:100EC0005907B8F04817590771F482819381109738
:100ED00029F013969C938E9312972CC090938001C7
:100EE00080937F0127C02115310531F04217530748
:100EF00018F0A901DB0101C0EF019A01BD01DF017A
:100F00000280F381E02DD7CF21153105F9F0281BA0
:100F1000390B2430310580F48A819B81611571057C
:100F200021F0FB019383828304C09093800180931E
:100F30007F01FE01329644C0FE01E20FF31F819350
:100F4000919322503109398328833AC020917D0141
:100F500030917E01232B41F4209114013091150131
:100F600030937E0120937D01209112013091130175
:100F70002115310541F42DB73EB74091160150912E
:100F80001701241B350BE0917D01F0917E01E217E2
:100F9000F307A0F42E1B3F0B2817390778F0AC019C
:100FA0004E5F5F4F2417350748F04E0F5F1F509379
:100FB0007E0140937D018193919302C0E0E0F0E0D7
:100FC000CF01DF91CF910895CF93DF93009709F47C
:100FD00087C0FC01329713821282C0917F01D091A9
:100FE0008001209781F420813181280F391F809161
:100FF0007D0190917E018217930779F5F0937E0130
:10100000E0937D016DC0DE0120E030E0AE17BF0748
:1010100050F412964D915C9113979D014115510525
:1010200009F1DA01F3CFB383A28340815181840FA8
:10103000951F8A179B0771F48D919C911197840FCE
:10104000951F02969183808312968D919C911397A0
:10105000938382832115310529F4F0938001E09375
:101060007F013EC0D9011396FC93EE9312974D91E8
:101070005D91A40FB51FEA17FB0779F48081918178
:10108000840F951F0296D90111969C938E938281AD
:10109000938113969C938E931297E0E0F0E08A81FF
:1010A0009B81009719F0FE01EC01F9CFCE01029669
:1010B00028813981820F931F20917D0130917E011B
:1010C0002817390769F4309729F41092800110929B
:1010D0007F0102C013821282D0937E01C0937D01F2
:1010E000DF91CF910895A0E0B0E0E9E7F8E00C943B
:1010F0003C0BFE01359661917191AF0180918301A6
:10110000909184010E94B408E2E00C94580B0F9374
:101110001F93CF93DF93E0918301F09184012381AA
:1011200021FF1BC0EC0100E010E089916091830178
:1011300070918401DB011896ED91FC911997882339
:1011400031F00995892B89F30FEF1FEFEECF8AE07D
:101150000995892B11F4C80102C08FEF9FEFDF9131
:10116000CF911F910F910895ACE0B0E0EAEBF8E069
:101170000C942C0B7C016B018A01FC0117821682F6
:10118000838181FFBDC1CE0101964C01F70193819E
:10119000F60193FD859193FF81916F01882309F4F6
:1011A000ABC1853239F493FD859193FF81916F0135
:1011B000853229F4B70190E00E949C0AE7CF512CB8
:1011C000312C20E02032A0F48B3269F030F48032F0
:1011D00059F0833269F420612CC08D3239F08033AC
:1011E00039F4216026C02260246023C0286021C019
:1011F00027FD27C030ED380F3A3078F426FF06C0BF
:10120000FAE05F9E300D1124532E13C08AE0389E01
:10121000300D1124332E20620CC08E3221F426FDB5
:101220006BC1206406C08C3611F4206802C0883679
:1012300041F4F60193FD859193FF81916F01811136
:10124000C1CF982F9F7D9554933028F40C5F1F4F8A
:10125000FFE3F9830DC0833631F0833771F08335B6
:1012600009F05BC022C0F801808189830E5F1F4FA7
:1012700044244394512C540115C03801F2E06F0E00
:10128000711CF801A080B18026FF03C0652D70E0BD
:1012900002C06FEF7FEFC5012C870E94910A2C01DD
:1012A00083012C852F77222E17C03801F2E06F0EB4
:1012B000711CF801A080B18026FF03C0652D70E08D
:1012C00002C06FEF7FEFC5012C870E94860A2C01B8
:1012D0002C852068222E830123FC1BC0832D90E0E7
:1012E00048165906B0F4B70180E290E00E949C0ACB
:1012F0003A94F4CFF50127FC859127FE81915F0197
:10130000B70190E00E949C0A31103A94F1E04F1A24
:1013100051084114510471F7E5C0843611F0893643
:1013200039F5F80127FF07C06081718182819381BF
:101330000C5F1F4F08C060817181882777FD809501
:10134000982F0E5F1F4F2F76B22E97FF09C09095F2
:101350008095709561957F4F8F4F9F4F2068B22E7B
:101360002AE030E0A4010E94CE0AA82EA81844C0AA
:10137000853729F42F7EB22E2AE030E025C0F22FE7
:10138000F97FBF2E8F36C1F018F4883579F0B4C0DC
:10139000803719F0883721F0AFC02F2F2061B22E8F
:1013A000B4FE0DC08B2D8460B82E09C024FF0AC086
:1013B0009F2F9660B92E06C028E030E005C020E1DE
:1013C00030E002C020E132E0F801B7FE07C06081E2
:1013D0007181828193810C5F1F4F06C06081718192
:1013E00080E090E00E5F1F4FA4010E94CE0AA82E5D
:1013F000A818FB2DFF77BF2EB6FE0BC02B2D2E7F1E
:10140000A51450F4B4FE0AC0B2FC08C02B2D2E7EE9
:1014100005C07A2C2B2D03C07A2C01C0752C24FF1B
:101420000DC0FE01EA0DF11D8081803311F4297E8B
:1014300009C022FF06C07394739404C0822F86787B
:1014400009F0739423FD13C020FF06C05A2C7314B7
:1014500018F4530C5718732C731468F4B70180E216
:1014600090E02C870E949C0A73942C85F5CF73140E
:1014700010F4371801C0312C24FF12C0B70180E3EB
:1014800090E02C870E949C0A2C8522FF17C021FF28
:1014900003C088E590E002C088E790E0B7010CC087
:1014A000822F867859F021FD02C080E201C08BE2D4
:1014B00027FD8DE2B70190E00E949C0AA51438F444
:1014C000B70180E390E00E949C0A5A94F7CFAA9457
:1014D000F401EA0DF11D8081B70190E00E949C0AA1
:1014E000A110F5CF332009F451CEB70180E290E08E
:1014F0000E949C0A3A94F6CFF7018681978102C038
:101500008FEF9FEF2C96E2E10C94480BFC010590C5
:10151000615070400110D8F7809590958E0F9F1FF5
:101520000895FC016150704001900110D8F780953A
:1015300090958E0F9F1F08950F931F93CF93DF9366
:10154000182F092FEB018B8181FD03C08FEF9FEFD7
:1015500020C082FF10C04E815F812C813D814217E7
:1015600053077CF4E881F9819F012F5F3F4F398356
:101570002883108306C0E885F985812F0995892B7A
:1015800029F72E813F812F5F3F4F3F832E83812F8D
:10159000902FDF91CF911F910F910895FA01AA2703
:1015A000283051F1203181F1E8946F936E7F6E5FA6
:1015B0007F4F8F4F9F4FAF4FB1E03ED0B4E03CD054
:1015C000670F781F891F9A1FA11D680F791F8A1F37
:1015D000911DA11D6A0F711D811D911DA11D20D09E
:1015E00009F468943F912AE0269F11243019305D58
:1015F0003193DEF6CF010895462F4770405D419349
:10160000B3E00FD0C9F7F6CF462F4F70405D4A3395
:1016100018F0495D31FD4052419302D0A9F7EACF5D
:10162000B4E0A6959795879577956795BA95C9F78C
:1016300000976105710508959B01AC010A2E06947F
:101640005795479537952795BA95C9F7620F731F38
:10165000841F951FA01D08952F923F924F925F9275
:101660006F927F928F929F92AF92BF92CF92DF92B2
:10167000EF92FF920F931F93CF93DF93CDB7DEB717
:10168000CA1BDB0B0FB6F894DEBF0FBECDBF0994AB
:101690002A88398848885F846E847D848C849B8402
:1016A000AA84B984C884DF80EE80FD800C811B8110
:1016B000AA81B981CE0FD11D0FB6F894DEBF0FBE3F
:0A16C000CDBFED010895F894FFCFAF
:1016CA0084038403000000020000000003030000FA
:1016DA00000000008701200000FF0100010000FF58
:1016EA00FF0000010001FF00645350494E20496E7B
:1016FA00697469616C697A696E672100645350493B
:10170A004E20496E697469616C697A656421202585
:10171A00782025780D0A004661696C6564212121CB
:10172A00202578202578200D0A00256400256920C7
:0A173A0025692025692025690A00B1
:00000001FF
